{"contracts/RockPaperScissors.sol":{"RockPaperScissors":{"abi":[{"inputs":[],"stateMutability":"nonpayable","type":"constructor"},{"anonymous":false,"inputs":[{"indexed":false,"internalType":"uint256","name":"gameId","type":"uint256"},{"indexed":true,"internalType":"address","name":"player1","type":"address"},{"indexed":true,"internalType":"address","name":"player2","type":"address"},{"indexed":false,"internalType":"uint256","name":"betAmount","type":"uint256"}],"name":"ChallengeCreated","type":"event"},{"anonymous":false,"inputs":[{"indexed":false,"internalType":"uint256","name":"gameId","type":"uint256"},{"indexed":true,"internalType":"address","name":"winner","type":"address"},{"indexed":true,"internalType":"address","name":"loser","type":"address"},{"indexed":false,"internalType":"uint256","name":"reward","type":"uint256"}],"name":"GameCompleted","type":"event"},{"inputs":[{"internalType":"uint256","name":"gameId","type":"uint256"},{"internalType":"uint256","name":"bet","type":"uint256"},{"internalType":"uint8","name":"choice","type":"uint8"}],"name":"acceptChallenge","outputs":[],"stateMutability":"payable","type":"function"},{"inputs":[{"internalType":"address","name":"opponent","type":"address"},{"internalType":"uint256","name":"bet","type":"uint256"},{"internalType":"uint8","name":"choice","type":"uint8"}],"name":"createChallenge","outputs":[],"stateMutability":"payable","type":"function"},{"inputs":[{"internalType":"uint256","name":"","type":"uint256"}],"name":"games","outputs":[{"internalType":"address","name":"player1","type":"address"},{"internalType":"address","name":"player2","type":"address"},{"internalType":"uint256","name":"betAmount","type":"uint256"},{"internalType":"uint8","name":"player1Choice","type":"uint8"},{"internalType":"uint8","name":"player2Choice","type":"uint8"},{"internalType":"uint8","name":"result","type":"uint8"},{"internalType":"bool","name":"completed","type":"bool"}],"stateMutability":"view","type":"function"},{"inputs":[],"name":"owner","outputs":[{"internalType":"address","name":"","type":"address"}],"stateMutability":"view","type":"function"}],"devdoc":{"kind":"dev","methods":{},"version":1},"evm":{"bytecode":{"linkReferences":{},"object":"608060405234801561001057600080fd5b50600080546001600160a01b03191633179055610a2a806100326000396000f3fe60806040526004361061003f5760003560e01c8063117a5b901461004457806380c47e52146100b05780638da5cb5b146100c5578063af3b5867146100fd575b600080fd5b34801561005057600080fd5b5061006461005f3660046108cd565b610110565b604080516001600160a01b0398891681529790961660208801529486019390935260ff9182166060860152811660808501521660a0830152151560c082015260e0015b60405180910390f35b6100c36100be3660046108fc565b610175565b005b3480156100d157600080fd5b506000546100e5906001600160a01b031681565b6040516001600160a01b0390911681526020016100a7565b6100c361010b366004610931565b610675565b6001818154811061012057600080fd5b600091825260209091206004909102018054600182015460028301546003909301546001600160a01b0392831694509116919060ff808216916101008104821691620100008204811691630100000090041687565b60028160ff1611156101bf5760405162461bcd60e51b815260206004820152600e60248201526d496e76616c69642063686f69636560901b60448201526064015b60405180910390fd5b336001600160a01b0316600184815481106101dc576101dc610972565b60009182526020909120600160049092020101546001600160a01b0316146102625760405162461bcd60e51b815260206004820152603360248201527f4f6e6c7920746865206368616c6c656e67656420706c617965722063616e2061604482015272636365707420746865206368616c6c656e676560681b60648201526084016101b6565b8134146102815760405162461bcd60e51b81526004016101b690610988565b806001848154811061029557610295610972565b906000526020600020906004020160030160016101000a81548160ff021916908360ff1602179055506000600184815481106102d3576102d3610972565b600091825260208220600360049092020101546001805460ff9092169350908690811061030257610302610972565b600091825260209091206003600490920201015460ff61010090910481169150821681900361036e5760006001868154811061034057610340610972565b906000526020600020906004020160030160026101000a81548160ff021916908360ff16021790555061055f565b60ff8216158015610382575060ff81166002145b8061039c575060ff8216600114801561039c575060ff8116155b806103b8575060ff821660021480156103b8575060ff81166001145b1561048f5760018086815481106103d1576103d1610972565b906000526020600020906004020160030160026101000a81548160ff021916908360ff1602179055506001858154811061040d5761040d610972565b6000918252602090912060049091020154600180546001600160a01b03909216916108fc91908890811061044357610443610972565b906000526020600020906004020160020154600261046191906109c9565b6040518115909202916000818181858888f19350505050158015610489573d6000803e3d6000fd5b5061055f565b6002600186815481106104a4576104a4610972565b906000526020600020906004020160030160026101000a81548160ff021916908360ff160217905550600185815481106104e0576104e0610972565b60009182526020909120600160049092020181015481546001600160a01b03909116916108fc918890811061051757610517610972565b906000526020600020906004020160020154600261053591906109c9565b6040518115909202916000818181858888f1935050505015801561055d573d6000803e3d6000fd5b505b600180868154811061057357610573610972565b906000526020600020906004020160030160036101000a81548160ff021916908315150217905550600185815481106105ae576105ae610972565b60009182526020909120600160049092020181015481546001600160a01b039091169190879081106105e2576105e2610972565b6000918252602090912060049091020154600180546001600160a01b03909216917fb7b3bb50f050f73e789ffd58183291a3980b009072895e4eb28dff78764273959189918290811061063757610637610972565b906000526020600020906004020160020154600261065591906109c9565b604080519283526020830191909152015b60405180910390a35050505050565b60028160ff1611156106ba5760405162461bcd60e51b815260206004820152600e60248201526d496e76616c69642063686f69636560901b60448201526064016101b6565b336001600160a01b038416036107125760405162461bcd60e51b815260206004820152601d60248201527f596f752063616e6e6f74206368616c6c656e676520796f757273656c6600000060448201526064016101b6565b8134146107315760405162461bcd60e51b81526004016101b690610988565b6040805160e081018252338082526001600160a01b038681166020840181815284860188815260ff8089166060880190815260006080890181815260a08a0182815260c08b0183815260018054808201825594528b51600485027fb10e2d527612073b26eecdfd717e6a320cf44b4afac2b0732d9fcbe2b7fa0cf681018054928d166001600160a01b031993841617905598517fb10e2d527612073b26eecdfd717e6a320cf44b4afac2b0732d9fcbe2b7fa0cf78a01805491909c1691161790995594517fb10e2d527612073b26eecdfd717e6a320cf44b4afac2b0732d9fcbe2b7fa0cf887015591517fb10e2d527612073b26eecdfd717e6a320cf44b4afac2b0732d9fcbe2b7fa0cf99095018054925194519751151563010000000263ff0000001998851662010000029890981663ffff0000199585166101000261ffff1990941696909416959095179190911792909216179390931790559351929390929091907fd2f7931a802085b3d0234d4c320ce7ee0041da96678ce2bf5c93e8d3d7e65f52906106669085908990918252602082015260400190565b6000602082840312156108df57600080fd5b5035919050565b803560ff811681146108f757600080fd5b919050565b60008060006060848603121561091157600080fd5b8335925060208401359150610928604085016108e6565b90509250925092565b60008060006060848603121561094657600080fd5b83356001600160a01b038116811461095d57600080fd5b925060208401359150610928604085016108e6565b634e487b7160e01b600052603260045260246000fd5b60208082526021908201527f53656e742076616c7565206d7573742062652067726561746572207468616e206040820152600360fc1b606082015260800190565b80820281158282048414176109ee57634e487b7160e01b600052601160045260246000fd5b9291505056fea26469706673582212209a46915ef98eccfe336aafe263e93796de61493980e0304e7ca4b902c18c4c8864736f6c63430008150033","opcodes":"PUSH1 0x80 PUSH1 0x40 MSTORE CALLVALUE DUP1 ISZERO PUSH2 0x10 JUMPI PUSH1 0x0 DUP1 REVERT JUMPDEST POP PUSH1 0x0 DUP1 SLOAD PUSH1 0x1 PUSH1 0x1 PUSH1 0xA0 SHL SUB NOT AND CALLER OR SWAP1 SSTORE PUSH2 0xA2A DUP1 PUSH2 0x32 PUSH1 0x0 CODECOPY PUSH1 0x0 RETURN INVALID PUSH1 0x80 PUSH1 0x40 MSTORE PUSH1 0x4 CALLDATASIZE LT PUSH2 0x3F JUMPI PUSH1 0x0 CALLDATALOAD PUSH1 0xE0 SHR DUP1 PUSH4 0x117A5B90 EQ PUSH2 0x44 JUMPI DUP1 PUSH4 0x80C47E52 EQ PUSH2 0xB0 JUMPI DUP1 PUSH4 0x8DA5CB5B EQ PUSH2 0xC5 JUMPI DUP1 PUSH4 0xAF3B5867 EQ PUSH2 0xFD JUMPI JUMPDEST PUSH1 0x0 DUP1 REVERT JUMPDEST CALLVALUE DUP1 ISZERO PUSH2 0x50 JUMPI PUSH1 0x0 DUP1 REVERT JUMPDEST POP PUSH2 0x64 PUSH2 0x5F CALLDATASIZE PUSH1 0x4 PUSH2 0x8CD JUMP JUMPDEST PUSH2 0x110 JUMP JUMPDEST PUSH1 0x40 DUP1 MLOAD PUSH1 0x1 PUSH1 0x1 PUSH1 0xA0 SHL SUB SWAP9 DUP10 AND DUP2 MSTORE SWAP8 SWAP1 SWAP7 AND PUSH1 0x20 DUP9 ADD MSTORE SWAP5 DUP7 ADD SWAP4 SWAP1 SWAP4 MSTORE PUSH1 0xFF SWAP2 DUP3 AND PUSH1 0x60 DUP7 ADD MSTORE DUP2 AND PUSH1 0x80 DUP6 ADD MSTORE AND PUSH1 0xA0 DUP4 ADD MSTORE ISZERO ISZERO PUSH1 0xC0 DUP3 ADD MSTORE PUSH1 0xE0 ADD JUMPDEST PUSH1 0x40 MLOAD DUP1 SWAP2 SUB SWAP1 RETURN JUMPDEST PUSH2 0xC3 PUSH2 0xBE CALLDATASIZE PUSH1 0x4 PUSH2 0x8FC JUMP JUMPDEST PUSH2 0x175 JUMP JUMPDEST STOP JUMPDEST CALLVALUE DUP1 ISZERO PUSH2 0xD1 JUMPI PUSH1 0x0 DUP1 REVERT JUMPDEST POP PUSH1 0x0 SLOAD PUSH2 0xE5 SWAP1 PUSH1 0x1 PUSH1 0x1 PUSH1 0xA0 SHL SUB AND DUP2 JUMP JUMPDEST PUSH1 0x40 MLOAD PUSH1 0x1 PUSH1 0x1 PUSH1 0xA0 SHL SUB SWAP1 SWAP2 AND DUP2 MSTORE PUSH1 0x20 ADD PUSH2 0xA7 JUMP JUMPDEST PUSH2 0xC3 PUSH2 0x10B CALLDATASIZE PUSH1 0x4 PUSH2 0x931 JUMP JUMPDEST PUSH2 0x675 JUMP JUMPDEST PUSH1 0x1 DUP2 DUP2 SLOAD DUP2 LT PUSH2 0x120 JUMPI PUSH1 0x0 DUP1 REVERT JUMPDEST PUSH1 0x0 SWAP2 DUP3 MSTORE PUSH1 0x20 SWAP1 SWAP2 KECCAK256 PUSH1 0x4 SWAP1 SWAP2 MUL ADD DUP1 SLOAD PUSH1 0x1 DUP3 ADD SLOAD PUSH1 0x2 DUP4 ADD SLOAD PUSH1 0x3 SWAP1 SWAP4 ADD SLOAD PUSH1 0x1 PUSH1 0x1 PUSH1 0xA0 SHL SUB SWAP3 DUP4 AND SWAP5 POP SWAP2 AND SWAP2 SWAP1 PUSH1 0xFF DUP1 DUP3 AND SWAP2 PUSH2 0x100 DUP2 DIV DUP3 AND SWAP2 PUSH3 0x10000 DUP3 DIV DUP2 AND SWAP2 PUSH4 0x1000000 SWAP1 DIV AND DUP8 JUMP JUMPDEST PUSH1 0x2 DUP2 PUSH1 0xFF AND GT ISZERO PUSH2 0x1BF JUMPI PUSH1 0x40 MLOAD PUSH3 0x461BCD PUSH1 0xE5 SHL DUP2 MSTORE PUSH1 0x20 PUSH1 0x4 DUP3 ADD MSTORE PUSH1 0xE PUSH1 0x24 DUP3 ADD MSTORE PUSH14 0x496E76616C69642063686F696365 PUSH1 0x90 SHL PUSH1 0x44 DUP3 ADD MSTORE PUSH1 0x64 ADD JUMPDEST PUSH1 0x40 MLOAD DUP1 SWAP2 SUB SWAP1 REVERT JUMPDEST CALLER PUSH1 0x1 PUSH1 0x1 PUSH1 0xA0 SHL SUB AND PUSH1 0x1 DUP5 DUP2 SLOAD DUP2 LT PUSH2 0x1DC JUMPI PUSH2 0x1DC PUSH2 0x972 JUMP JUMPDEST PUSH1 0x0 SWAP2 DUP3 MSTORE PUSH1 0x20 SWAP1 SWAP2 KECCAK256 PUSH1 0x1 PUSH1 0x4 SWAP1 SWAP3 MUL ADD ADD SLOAD PUSH1 0x1 PUSH1 0x1 PUSH1 0xA0 SHL SUB AND EQ PUSH2 0x262 JUMPI PUSH1 0x40 MLOAD PUSH3 0x461BCD PUSH1 0xE5 SHL DUP2 MSTORE PUSH1 0x20 PUSH1 0x4 DUP3 ADD MSTORE PUSH1 0x33 PUSH1 0x24 DUP3 ADD MSTORE PUSH32 0x4F6E6C7920746865206368616C6C656E67656420706C617965722063616E2061 PUSH1 0x44 DUP3 ADD MSTORE PUSH19 0x636365707420746865206368616C6C656E6765 PUSH1 0x68 SHL PUSH1 0x64 DUP3 ADD MSTORE PUSH1 0x84 ADD PUSH2 0x1B6 JUMP JUMPDEST DUP2 CALLVALUE EQ PUSH2 0x281 JUMPI PUSH1 0x40 MLOAD PUSH3 0x461BCD PUSH1 0xE5 SHL DUP2 MSTORE PUSH1 0x4 ADD PUSH2 0x1B6 SWAP1 PUSH2 0x988 JUMP JUMPDEST DUP1 PUSH1 0x1 DUP5 DUP2 SLOAD DUP2 LT PUSH2 0x295 JUMPI PUSH2 0x295 PUSH2 0x972 JUMP JUMPDEST SWAP1 PUSH1 0x0 MSTORE PUSH1 0x20 PUSH1 0x0 KECCAK256 SWAP1 PUSH1 0x4 MUL ADD PUSH1 0x3 ADD PUSH1 0x1 PUSH2 0x100 EXP DUP2 SLOAD DUP2 PUSH1 0xFF MUL NOT AND SWAP1 DUP4 PUSH1 0xFF AND MUL OR SWAP1 SSTORE POP PUSH1 0x0 PUSH1 0x1 DUP5 DUP2 SLOAD DUP2 LT PUSH2 0x2D3 JUMPI PUSH2 0x2D3 PUSH2 0x972 JUMP JUMPDEST PUSH1 0x0 SWAP2 DUP3 MSTORE PUSH1 0x20 DUP3 KECCAK256 PUSH1 0x3 PUSH1 0x4 SWAP1 SWAP3 MUL ADD ADD SLOAD PUSH1 0x1 DUP1 SLOAD PUSH1 0xFF SWAP1 SWAP3 AND SWAP4 POP SWAP1 DUP7 SWAP1 DUP2 LT PUSH2 0x302 JUMPI PUSH2 0x302 PUSH2 0x972 JUMP JUMPDEST PUSH1 0x0 SWAP2 DUP3 MSTORE PUSH1 0x20 SWAP1 SWAP2 KECCAK256 PUSH1 0x3 PUSH1 0x4 SWAP1 SWAP3 MUL ADD ADD SLOAD PUSH1 0xFF PUSH2 0x100 SWAP1 SWAP2 DIV DUP2 AND SWAP2 POP DUP3 AND DUP2 SWAP1 SUB PUSH2 0x36E JUMPI PUSH1 0x0 PUSH1 0x1 DUP7 DUP2 SLOAD DUP2 LT PUSH2 0x340 JUMPI PUSH2 0x340 PUSH2 0x972 JUMP JUMPDEST SWAP1 PUSH1 0x0 MSTORE PUSH1 0x20 PUSH1 0x0 KECCAK256 SWAP1 PUSH1 0x4 MUL ADD PUSH1 0x3 ADD PUSH1 0x2 PUSH2 0x100 EXP DUP2 SLOAD DUP2 PUSH1 0xFF MUL NOT AND SWAP1 DUP4 PUSH1 0xFF AND MUL OR SWAP1 SSTORE POP PUSH2 0x55F JUMP JUMPDEST PUSH1 0xFF DUP3 AND ISZERO DUP1 ISZERO PUSH2 0x382 JUMPI POP PUSH1 0xFF DUP2 AND PUSH1 0x2 EQ JUMPDEST DUP1 PUSH2 0x39C JUMPI POP PUSH1 0xFF DUP3 AND PUSH1 0x1 EQ DUP1 ISZERO PUSH2 0x39C JUMPI POP PUSH1 0xFF DUP2 AND ISZERO JUMPDEST DUP1 PUSH2 0x3B8 JUMPI POP PUSH1 0xFF DUP3 AND PUSH1 0x2 EQ DUP1 ISZERO PUSH2 0x3B8 JUMPI POP PUSH1 0xFF DUP2 AND PUSH1 0x1 EQ JUMPDEST ISZERO PUSH2 0x48F JUMPI PUSH1 0x1 DUP1 DUP7 DUP2 SLOAD DUP2 LT PUSH2 0x3D1 JUMPI PUSH2 0x3D1 PUSH2 0x972 JUMP JUMPDEST SWAP1 PUSH1 0x0 MSTORE PUSH1 0x20 PUSH1 0x0 KECCAK256 SWAP1 PUSH1 0x4 MUL ADD PUSH1 0x3 ADD PUSH1 0x2 PUSH2 0x100 EXP DUP2 SLOAD DUP2 PUSH1 0xFF MUL NOT AND SWAP1 DUP4 PUSH1 0xFF AND MUL OR SWAP1 SSTORE POP PUSH1 0x1 DUP6 DUP2 SLOAD DUP2 LT PUSH2 0x40D JUMPI PUSH2 0x40D PUSH2 0x972 JUMP JUMPDEST PUSH1 0x0 SWAP2 DUP3 MSTORE PUSH1 0x20 SWAP1 SWAP2 KECCAK256 PUSH1 0x4 SWAP1 SWAP2 MUL ADD SLOAD PUSH1 0x1 DUP1 SLOAD PUSH1 0x1 PUSH1 0x1 PUSH1 0xA0 SHL SUB SWAP1 SWAP3 AND SWAP2 PUSH2 0x8FC SWAP2 SWAP1 DUP9 SWAP1 DUP2 LT PUSH2 0x443 JUMPI PUSH2 0x443 PUSH2 0x972 JUMP JUMPDEST SWAP1 PUSH1 0x0 MSTORE PUSH1 0x20 PUSH1 0x0 KECCAK256 SWAP1 PUSH1 0x4 MUL ADD PUSH1 0x2 ADD SLOAD PUSH1 0x2 PUSH2 0x461 SWAP2 SWAP1 PUSH2 0x9C9 JUMP JUMPDEST PUSH1 0x40 MLOAD DUP2 ISZERO SWAP1 SWAP3 MUL SWAP2 PUSH1 0x0 DUP2 DUP2 DUP2 DUP6 DUP9 DUP9 CALL SWAP4 POP POP POP POP ISZERO DUP1 ISZERO PUSH2 0x489 JUMPI RETURNDATASIZE PUSH1 0x0 DUP1 RETURNDATACOPY RETURNDATASIZE PUSH1 0x0 REVERT JUMPDEST POP PUSH2 0x55F JUMP JUMPDEST PUSH1 0x2 PUSH1 0x1 DUP7 DUP2 SLOAD DUP2 LT PUSH2 0x4A4 JUMPI PUSH2 0x4A4 PUSH2 0x972 JUMP JUMPDEST SWAP1 PUSH1 0x0 MSTORE PUSH1 0x20 PUSH1 0x0 KECCAK256 SWAP1 PUSH1 0x4 MUL ADD PUSH1 0x3 ADD PUSH1 0x2 PUSH2 0x100 EXP DUP2 SLOAD DUP2 PUSH1 0xFF MUL NOT AND SWAP1 DUP4 PUSH1 0xFF AND MUL OR SWAP1 SSTORE POP PUSH1 0x1 DUP6 DUP2 SLOAD DUP2 LT PUSH2 0x4E0 JUMPI PUSH2 0x4E0 PUSH2 0x972 JUMP JUMPDEST PUSH1 0x0 SWAP2 DUP3 MSTORE PUSH1 0x20 SWAP1 SWAP2 KECCAK256 PUSH1 0x1 PUSH1 0x4 SWAP1 SWAP3 MUL ADD DUP2 ADD SLOAD DUP2 SLOAD PUSH1 0x1 PUSH1 0x1 PUSH1 0xA0 SHL SUB SWAP1 SWAP2 AND SWAP2 PUSH2 0x8FC SWAP2 DUP9 SWAP1 DUP2 LT PUSH2 0x517 JUMPI PUSH2 0x517 PUSH2 0x972 JUMP JUMPDEST SWAP1 PUSH1 0x0 MSTORE PUSH1 0x20 PUSH1 0x0 KECCAK256 SWAP1 PUSH1 0x4 MUL ADD PUSH1 0x2 ADD SLOAD PUSH1 0x2 PUSH2 0x535 SWAP2 SWAP1 PUSH2 0x9C9 JUMP JUMPDEST PUSH1 0x40 MLOAD DUP2 ISZERO SWAP1 SWAP3 MUL SWAP2 PUSH1 0x0 DUP2 DUP2 DUP2 DUP6 DUP9 DUP9 CALL SWAP4 POP POP POP POP ISZERO DUP1 ISZERO PUSH2 0x55D JUMPI RETURNDATASIZE PUSH1 0x0 DUP1 RETURNDATACOPY RETURNDATASIZE PUSH1 0x0 REVERT JUMPDEST POP JUMPDEST PUSH1 0x1 DUP1 DUP7 DUP2 SLOAD DUP2 LT PUSH2 0x573 JUMPI PUSH2 0x573 PUSH2 0x972 JUMP JUMPDEST SWAP1 PUSH1 0x0 MSTORE PUSH1 0x20 PUSH1 0x0 KECCAK256 SWAP1 PUSH1 0x4 MUL ADD PUSH1 0x3 ADD PUSH1 0x3 PUSH2 0x100 EXP DUP2 SLOAD DUP2 PUSH1 0xFF MUL NOT AND SWAP1 DUP4 ISZERO ISZERO MUL OR SWAP1 SSTORE POP PUSH1 0x1 DUP6 DUP2 SLOAD DUP2 LT PUSH2 0x5AE JUMPI PUSH2 0x5AE PUSH2 0x972 JUMP JUMPDEST PUSH1 0x0 SWAP2 DUP3 MSTORE PUSH1 0x20 SWAP1 SWAP2 KECCAK256 PUSH1 0x1 PUSH1 0x4 SWAP1 SWAP3 MUL ADD DUP2 ADD SLOAD DUP2 SLOAD PUSH1 0x1 PUSH1 0x1 PUSH1 0xA0 SHL SUB SWAP1 SWAP2 AND SWAP2 SWAP1 DUP8 SWAP1 DUP2 LT PUSH2 0x5E2 JUMPI PUSH2 0x5E2 PUSH2 0x972 JUMP JUMPDEST PUSH1 0x0 SWAP2 DUP3 MSTORE PUSH1 0x20 SWAP1 SWAP2 KECCAK256 PUSH1 0x4 SWAP1 SWAP2 MUL ADD SLOAD PUSH1 0x1 DUP1 SLOAD PUSH1 0x1 PUSH1 0x1 PUSH1 0xA0 SHL SUB SWAP1 SWAP3 AND SWAP2 PUSH32 0xB7B3BB50F050F73E789FFD58183291A3980B009072895E4EB28DFF7876427395 SWAP2 DUP10 SWAP2 DUP3 SWAP1 DUP2 LT PUSH2 0x637 JUMPI PUSH2 0x637 PUSH2 0x972 JUMP JUMPDEST SWAP1 PUSH1 0x0 MSTORE PUSH1 0x20 PUSH1 0x0 KECCAK256 SWAP1 PUSH1 0x4 MUL ADD PUSH1 0x2 ADD SLOAD PUSH1 0x2 PUSH2 0x655 SWAP2 SWAP1 PUSH2 0x9C9 JUMP JUMPDEST PUSH1 0x40 DUP1 MLOAD SWAP3 DUP4 MSTORE PUSH1 0x20 DUP4 ADD SWAP2 SWAP1 SWAP2 MSTORE ADD JUMPDEST PUSH1 0x40 MLOAD DUP1 SWAP2 SUB SWAP1 LOG3 POP POP POP POP POP JUMP JUMPDEST PUSH1 0x2 DUP2 PUSH1 0xFF AND GT ISZERO PUSH2 0x6BA JUMPI PUSH1 0x40 MLOAD PUSH3 0x461BCD PUSH1 0xE5 SHL DUP2 MSTORE PUSH1 0x20 PUSH1 0x4 DUP3 ADD MSTORE PUSH1 0xE PUSH1 0x24 DUP3 ADD MSTORE PUSH14 0x496E76616C69642063686F696365 PUSH1 0x90 SHL PUSH1 0x44 DUP3 ADD MSTORE PUSH1 0x64 ADD PUSH2 0x1B6 JUMP JUMPDEST CALLER PUSH1 0x1 PUSH1 0x1 PUSH1 0xA0 SHL SUB DUP5 AND SUB PUSH2 0x712 JUMPI PUSH1 0x40 MLOAD PUSH3 0x461BCD PUSH1 0xE5 SHL DUP2 MSTORE PUSH1 0x20 PUSH1 0x4 DUP3 ADD MSTORE PUSH1 0x1D PUSH1 0x24 DUP3 ADD MSTORE PUSH32 0x596F752063616E6E6F74206368616C6C656E676520796F757273656C66000000 PUSH1 0x44 DUP3 ADD MSTORE PUSH1 0x64 ADD PUSH2 0x1B6 JUMP JUMPDEST DUP2 CALLVALUE EQ PUSH2 0x731 JUMPI PUSH1 0x40 MLOAD PUSH3 0x461BCD PUSH1 0xE5 SHL DUP2 MSTORE PUSH1 0x4 ADD PUSH2 0x1B6 SWAP1 PUSH2 0x988 JUMP JUMPDEST PUSH1 0x40 DUP1 MLOAD PUSH1 0xE0 DUP2 ADD DUP3 MSTORE CALLER DUP1 DUP3 MSTORE PUSH1 0x1 PUSH1 0x1 PUSH1 0xA0 SHL SUB DUP7 DUP2 AND PUSH1 0x20 DUP5 ADD DUP2 DUP2 MSTORE DUP5 DUP7 ADD DUP9 DUP2 MSTORE PUSH1 0xFF DUP1 DUP10 AND PUSH1 0x60 DUP9 ADD SWAP1 DUP2 MSTORE PUSH1 0x0 PUSH1 0x80 DUP10 ADD DUP2 DUP2 MSTORE PUSH1 0xA0 DUP11 ADD DUP3 DUP2 MSTORE PUSH1 0xC0 DUP12 ADD DUP4 DUP2 MSTORE PUSH1 0x1 DUP1 SLOAD DUP1 DUP3 ADD DUP3 SSTORE SWAP5 MSTORE DUP12 MLOAD PUSH1 0x4 DUP6 MUL PUSH32 0xB10E2D527612073B26EECDFD717E6A320CF44B4AFAC2B0732D9FCBE2B7FA0CF6 DUP2 ADD DUP1 SLOAD SWAP3 DUP14 AND PUSH1 0x1 PUSH1 0x1 PUSH1 0xA0 SHL SUB NOT SWAP4 DUP5 AND OR SWAP1 SSTORE SWAP9 MLOAD PUSH32 0xB10E2D527612073B26EECDFD717E6A320CF44B4AFAC2B0732D9FCBE2B7FA0CF7 DUP11 ADD DUP1 SLOAD SWAP2 SWAP1 SWAP13 AND SWAP2 AND OR SWAP1 SWAP10 SSTORE SWAP5 MLOAD PUSH32 0xB10E2D527612073B26EECDFD717E6A320CF44B4AFAC2B0732D9FCBE2B7FA0CF8 DUP8 ADD SSTORE SWAP2 MLOAD PUSH32 0xB10E2D527612073B26EECDFD717E6A320CF44B4AFAC2B0732D9FCBE2B7FA0CF9 SWAP1 SWAP6 ADD DUP1 SLOAD SWAP3 MLOAD SWAP5 MLOAD SWAP8 MLOAD ISZERO ISZERO PUSH4 0x1000000 MUL PUSH4 0xFF000000 NOT SWAP9 DUP6 AND PUSH3 0x10000 MUL SWAP9 SWAP1 SWAP9 AND PUSH4 0xFFFF0000 NOT SWAP6 DUP6 AND PUSH2 0x100 MUL PUSH2 0xFFFF NOT SWAP1 SWAP5 AND SWAP7 SWAP1 SWAP5 AND SWAP6 SWAP1 SWAP6 OR SWAP2 SWAP1 SWAP2 OR SWAP3 SWAP1 SWAP3 AND OR SWAP4 SWAP1 SWAP4 OR SWAP1 SSTORE SWAP4 MLOAD SWAP3 SWAP4 SWAP1 SWAP3 SWAP1 SWAP2 SWAP1 PUSH32 0xD2F7931A802085B3D0234D4C320CE7EE0041DA96678CE2BF5C93E8D3D7E65F52 SWAP1 PUSH2 0x666 SWAP1 DUP6 SWAP1 DUP10 SWAP1 SWAP2 DUP3 MSTORE PUSH1 0x20 DUP3 ADD MSTORE PUSH1 0x40 ADD SWAP1 JUMP JUMPDEST PUSH1 0x0 PUSH1 0x20 DUP3 DUP5 SUB SLT ISZERO PUSH2 0x8DF JUMPI PUSH1 0x0 DUP1 REVERT JUMPDEST POP CALLDATALOAD SWAP2 SWAP1 POP JUMP JUMPDEST DUP1 CALLDATALOAD PUSH1 0xFF DUP2 AND DUP2 EQ PUSH2 0x8F7 JUMPI PUSH1 0x0 DUP1 REVERT JUMPDEST SWAP2 SWAP1 POP JUMP JUMPDEST PUSH1 0x0 DUP1 PUSH1 0x0 PUSH1 0x60 DUP5 DUP7 SUB SLT ISZERO PUSH2 0x911 JUMPI PUSH1 0x0 DUP1 REVERT JUMPDEST DUP4 CALLDATALOAD SWAP3 POP PUSH1 0x20 DUP5 ADD CALLDATALOAD SWAP2 POP PUSH2 0x928 PUSH1 0x40 DUP6 ADD PUSH2 0x8E6 JUMP JUMPDEST SWAP1 POP SWAP3 POP SWAP3 POP SWAP3 JUMP JUMPDEST PUSH1 0x0 DUP1 PUSH1 0x0 PUSH1 0x60 DUP5 DUP7 SUB SLT ISZERO PUSH2 0x946 JUMPI PUSH1 0x0 DUP1 REVERT JUMPDEST DUP4 CALLDATALOAD PUSH1 0x1 PUSH1 0x1 PUSH1 0xA0 SHL SUB DUP2 AND DUP2 EQ PUSH2 0x95D JUMPI PUSH1 0x0 DUP1 REVERT JUMPDEST SWAP3 POP PUSH1 0x20 DUP5 ADD CALLDATALOAD SWAP2 POP PUSH2 0x928 PUSH1 0x40 DUP6 ADD PUSH2 0x8E6 JUMP JUMPDEST PUSH4 0x4E487B71 PUSH1 0xE0 SHL PUSH1 0x0 MSTORE PUSH1 0x32 PUSH1 0x4 MSTORE PUSH1 0x24 PUSH1 0x0 REVERT JUMPDEST PUSH1 0x20 DUP1 DUP3 MSTORE PUSH1 0x21 SWAP1 DUP3 ADD MSTORE PUSH32 0x53656E742076616C7565206D7573742062652067726561746572207468616E20 PUSH1 0x40 DUP3 ADD MSTORE PUSH1 0x3 PUSH1 0xFC SHL PUSH1 0x60 DUP3 ADD MSTORE PUSH1 0x80 ADD SWAP1 JUMP JUMPDEST DUP1 DUP3 MUL DUP2 ISZERO DUP3 DUP3 DIV DUP5 EQ OR PUSH2 0x9EE JUMPI PUSH4 0x4E487B71 PUSH1 0xE0 SHL PUSH1 0x0 MSTORE PUSH1 0x11 PUSH1 0x4 MSTORE PUSH1 0x24 PUSH1 0x0 REVERT JUMPDEST SWAP3 SWAP2 POP POP JUMP INVALID LOG2 PUSH5 0x6970667358 0x22 SLT KECCAK256 SWAP11 CHAINID SWAP2 0x5E 0xF9 DUP15 0xCC INVALID CALLER PUSH11 0xAFE263E93796DE61493980 0xE0 ADDRESS 0x4E PUSH29 0xA4B902C18C4C8864736F6C634300081500330000000000000000000000 "},"gasEstimates":{"creation":{"codeDepositCost":"520400","executionCost":"24791","totalCost":"545191"},"external":{"acceptChallenge(uint256,uint256,uint8)":"infinite","createChallenge(address,uint256,uint8)":"122080","games(uint256)":"11156","owner()":"2359"}},"methodIdentifiers":{"acceptChallenge(uint256,uint256,uint8)":"80c47e52","createChallenge(address,uint256,uint8)":"af3b5867","games(uint256)":"117a5b90","owner()":"8da5cb5b"}},"storageLayout":{"storage":[{"astId":3,"contract":"contracts/RockPaperScissors.sol:RockPaperScissors","label":"owner","offset":0,"slot":"0","type":"t_address"},{"astId":22,"contract":"contracts/RockPaperScissors.sol:RockPaperScissors","label":"games","offset":0,"slot":"1","type":"t_array(t_struct(Game)18_storage)dyn_storage"}],"types":{"t_address":{"encoding":"inplace","label":"address","numberOfBytes":"20"},"t_array(t_struct(Game)18_storage)dyn_storage":{"base":"t_struct(Game)18_storage","encoding":"dynamic_array","label":"struct RockPaperScissors.Game[]","numberOfBytes":"32"},"t_bool":{"encoding":"inplace","label":"bool","numberOfBytes":"1"},"t_struct(Game)18_storage":{"encoding":"inplace","label":"struct RockPaperScissors.Game","members":[{"astId":5,"contract":"contracts/RockPaperScissors.sol:RockPaperScissors","label":"player1","offset":0,"slot":"0","type":"t_address"},{"astId":7,"contract":"contracts/RockPaperScissors.sol:RockPaperScissors","label":"player2","offset":0,"slot":"1","type":"t_address"},{"astId":9,"contract":"contracts/RockPaperScissors.sol:RockPaperScissors","label":"betAmount","offset":0,"slot":"2","type":"t_uint256"},{"astId":11,"contract":"contracts/RockPaperScissors.sol:RockPaperScissors","label":"player1Choice","offset":0,"slot":"3","type":"t_uint8"},{"astId":13,"contract":"contracts/RockPaperScissors.sol:RockPaperScissors","label":"player2Choice","offset":1,"slot":"3","type":"t_uint8"},{"astId":15,"contract":"contracts/RockPaperScissors.sol:RockPaperScissors","label":"result","offset":2,"slot":"3","type":"t_uint8"},{"astId":17,"contract":"contracts/RockPaperScissors.sol:RockPaperScissors","label":"completed","offset":3,"slot":"3","type":"t_bool"}],"numberOfBytes":"128"},"t_uint256":{"encoding":"inplace","label":"uint256","numberOfBytes":"32"},"t_uint8":{"encoding":"inplace","label":"uint8","numberOfBytes":"1"}}},"userdoc":{"kind":"user","methods":{},"version":1}}}}