{
  "_format": "hh-sol-artifact-1",
  "contractName": "RockPaperScissors",
  "sourceName": "contracts/RockPaperScissors.sol",
  "abi": [
    {
      "inputs": [],
      "stateMutability": "nonpayable",
      "type": "constructor"
    },
    {
      "anonymous": false,
      "inputs": [
        {
          "indexed": false,
          "internalType": "uint256",
          "name": "gameId",
          "type": "uint256"
        },
        {
          "indexed": true,
          "internalType": "address",
          "name": "player1",
          "type": "address"
        },
        {
          "indexed": true,
          "internalType": "address",
          "name": "player2",
          "type": "address"
        },
        {
          "indexed": false,
          "internalType": "uint256",
          "name": "betAmount",
          "type": "uint256"
        }
      ],
      "name": "ChallengeCreated",
      "type": "event"
    },
    {
      "anonymous": false,
      "inputs": [
        {
          "indexed": false,
          "internalType": "uint256",
          "name": "gameId",
          "type": "uint256"
        },
        {
          "indexed": true,
          "internalType": "address",
          "name": "winner",
          "type": "address"
        },
        {
          "indexed": true,
          "internalType": "address",
          "name": "loser",
          "type": "address"
        },
        {
          "indexed": false,
          "internalType": "uint256",
          "name": "reward",
          "type": "uint256"
        }
      ],
      "name": "GameCompleted",
      "type": "event"
    },
    {
      "inputs": [
        {
          "internalType": "uint256",
          "name": "gameId",
          "type": "uint256"
        },
        {
          "internalType": "uint256",
          "name": "bet",
          "type": "uint256"
        },
        {
          "internalType": "uint8",
          "name": "choice",
          "type": "uint8"
        }
      ],
      "name": "acceptChallenge",
      "outputs": [],
      "stateMutability": "payable",
      "type": "function"
    },
    {
      "inputs": [
        {
          "internalType": "address",
          "name": "opponent",
          "type": "address"
        },
        {
          "internalType": "uint256",
          "name": "bet",
          "type": "uint256"
        },
        {
          "internalType": "uint8",
          "name": "choice",
          "type": "uint8"
        }
      ],
      "name": "createChallenge",
      "outputs": [],
      "stateMutability": "payable",
      "type": "function"
    },
    {
      "inputs": [
        {
          "internalType": "uint256",
          "name": "",
          "type": "uint256"
        }
      ],
      "name": "games",
      "outputs": [
        {
          "internalType": "address",
          "name": "player1",
          "type": "address"
        },
        {
          "internalType": "address",
          "name": "player2",
          "type": "address"
        },
        {
          "internalType": "uint256",
          "name": "betAmount",
          "type": "uint256"
        },
        {
          "internalType": "uint8",
          "name": "player1Choice",
          "type": "uint8"
        },
        {
          "internalType": "uint8",
          "name": "player2Choice",
          "type": "uint8"
        },
        {
          "internalType": "uint8",
          "name": "result",
          "type": "uint8"
        },
        {
          "internalType": "bool",
          "name": "completed",
          "type": "bool"
        }
      ],
      "stateMutability": "view",
      "type": "function"
    },
    {
      "inputs": [],
      "name": "owner",
      "outputs": [
        {
          "internalType": "address",
          "name": "",
          "type": "address"
        }
      ],
      "stateMutability": "view",
      "type": "function"
    }
  ],
  "bytecode": "0x608060405234801561001057600080fd5b50600080546001600160a01b03191633179055610a2a806100326000396000f3fe60806040526004361061003f5760003560e01c8063117a5b901461004457806380c47e52146100b05780638da5cb5b146100c5578063af3b5867146100fd575b600080fd5b34801561005057600080fd5b5061006461005f3660046108cd565b610110565b604080516001600160a01b0398891681529790961660208801529486019390935260ff9182166060860152811660808501521660a0830152151560c082015260e0015b60405180910390f35b6100c36100be3660046108fc565b610175565b005b3480156100d157600080fd5b506000546100e5906001600160a01b031681565b6040516001600160a01b0390911681526020016100a7565b6100c361010b366004610931565b610675565b6001818154811061012057600080fd5b600091825260209091206004909102018054600182015460028301546003909301546001600160a01b0392831694509116919060ff808216916101008104821691620100008204811691630100000090041687565b60028160ff1611156101bf5760405162461bcd60e51b815260206004820152600e60248201526d496e76616c69642063686f69636560901b60448201526064015b60405180910390fd5b336001600160a01b0316600184815481106101dc576101dc610972565b60009182526020909120600160049092020101546001600160a01b0316146102625760405162461bcd60e51b815260206004820152603360248201527f4f6e6c7920746865206368616c6c656e67656420706c617965722063616e2061604482015272636365707420746865206368616c6c656e676560681b60648201526084016101b6565b8134146102815760405162461bcd60e51b81526004016101b690610988565b806001848154811061029557610295610972565b906000526020600020906004020160030160016101000a81548160ff021916908360ff1602179055506000600184815481106102d3576102d3610972565b600091825260208220600360049092020101546001805460ff9092169350908690811061030257610302610972565b600091825260209091206003600490920201015460ff61010090910481169150821681900361036e5760006001868154811061034057610340610972565b906000526020600020906004020160030160026101000a81548160ff021916908360ff16021790555061055f565b60ff8216158015610382575060ff81166002145b8061039c575060ff8216600114801561039c575060ff8116155b806103b8575060ff821660021480156103b8575060ff81166001145b1561048f5760018086815481106103d1576103d1610972565b906000526020600020906004020160030160026101000a81548160ff021916908360ff1602179055506001858154811061040d5761040d610972565b6000918252602090912060049091020154600180546001600160a01b03909216916108fc91908890811061044357610443610972565b906000526020600020906004020160020154600261046191906109c9565b6040518115909202916000818181858888f19350505050158015610489573d6000803e3d6000fd5b5061055f565b6002600186815481106104a4576104a4610972565b906000526020600020906004020160030160026101000a81548160ff021916908360ff160217905550600185815481106104e0576104e0610972565b60009182526020909120600160049092020181015481546001600160a01b03909116916108fc918890811061051757610517610972565b906000526020600020906004020160020154600261053591906109c9565b6040518115909202916000818181858888f1935050505015801561055d573d6000803e3d6000fd5b505b600180868154811061057357610573610972565b906000526020600020906004020160030160036101000a81548160ff021916908315150217905550600185815481106105ae576105ae610972565b60009182526020909120600160049092020181015481546001600160a01b039091169190879081106105e2576105e2610972565b6000918252602090912060049091020154600180546001600160a01b03909216917fb7b3bb50f050f73e789ffd58183291a3980b009072895e4eb28dff78764273959189918290811061063757610637610972565b906000526020600020906004020160020154600261065591906109c9565b604080519283526020830191909152015b60405180910390a35050505050565b60028160ff1611156106ba5760405162461bcd60e51b815260206004820152600e60248201526d496e76616c69642063686f69636560901b60448201526064016101b6565b336001600160a01b038416036107125760405162461bcd60e51b815260206004820152601d60248201527f596f752063616e6e6f74206368616c6c656e676520796f757273656c6600000060448201526064016101b6565b8134146107315760405162461bcd60e51b81526004016101b690610988565b6040805160e081018252338082526001600160a01b038681166020840181815284860188815260ff8089166060880190815260006080890181815260a08a0182815260c08b0183815260018054808201825594528b51600485027fb10e2d527612073b26eecdfd717e6a320cf44b4afac2b0732d9fcbe2b7fa0cf681018054928d166001600160a01b031993841617905598517fb10e2d527612073b26eecdfd717e6a320cf44b4afac2b0732d9fcbe2b7fa0cf78a01805491909c1691161790995594517fb10e2d527612073b26eecdfd717e6a320cf44b4afac2b0732d9fcbe2b7fa0cf887015591517fb10e2d527612073b26eecdfd717e6a320cf44b4afac2b0732d9fcbe2b7fa0cf99095018054925194519751151563010000000263ff0000001998851662010000029890981663ffff0000199585166101000261ffff1990941696909416959095179190911792909216179390931790559351929390929091907fd2f7931a802085b3d0234d4c320ce7ee0041da96678ce2bf5c93e8d3d7e65f52906106669085908990918252602082015260400190565b6000602082840312156108df57600080fd5b5035919050565b803560ff811681146108f757600080fd5b919050565b60008060006060848603121561091157600080fd5b8335925060208401359150610928604085016108e6565b90509250925092565b60008060006060848603121561094657600080fd5b83356001600160a01b038116811461095d57600080fd5b925060208401359150610928604085016108e6565b634e487b7160e01b600052603260045260246000fd5b60208082526021908201527f53656e742076616c7565206d7573742062652067726561746572207468616e206040820152600360fc1b606082015260800190565b80820281158282048414176109ee57634e487b7160e01b600052601160045260246000fd5b9291505056fea26469706673582212209a46915ef98eccfe336aafe263e93796de61493980e0304e7ca4b902c18c4c8864736f6c63430008150033",
  "linkReferences": {},
  "deployedLinkReferences": {}
}